:020000040800F2
:10000000780B0020BD01000855210008311D0008B3
:1000100051210008A90500088D26000800000000F5
:100020000000000000000000000000008126000821
:10003000AD050008000000005921000885260008D1
:10004000D7010008D7010008D7010008D701000830
:10005000D7010008D7010008D7010008D701000820
:10006000D7010008D7010008D7010008D701000810
:10007000D7010008D7010008D7010008D701000800
:10008000D7010008D7010008D7010008D7010008F0
:10009000D7010008D7010008D7010008D7010008E0
:1000A000D7010008D7010008D7010008D7010008D0
:1000B000D7010008D7010008D7010008D7010008C0
:1000C000D7010008D7010008D7010008D7010008B0
:1000D000D7010008D7010008D7010008D7010008A0
:1000E000D7010008D7010008D701000800F002F886
:1000F00000F055F814A696E8000CB244B344DA4573
:1001000001D100F04CF8BAE80F000FA696E83000D5
:10011000A5EB040504EB0607AAEB0704A7F101070A
:100120004FEA15154FEA3414A4F10104AC4201D38F
:1001300000F035F813F0010F18BFFB1A43F001036C
:1001400000F001F8DBE71847F8390000183A000022
:10015000103A24BF78C878C1FAD8520724BF30C8F3
:1001600030C144BF04680C60704700007047000055
:100170000023002400250026103A28BF78C1FBD8B0
:10018000520728BF30C148BF0B607047642900F098
:100190007D80002070471FB51FBD10B510BD00F059
:1001A000C8F91146FFF7F7FF02F072FA00F0E6F91E
:1001B00003B4FFF7F2FF03BC00F0EEF909488047F3
:1001C00009480047FEE7FEE7FEE7FEE7FEE7FEE739
:1001D000FEE7FEE7FEE7FEE704480549054A064B51
:1001E0007047000089260008ED000008780500200F
:1001F000780B002078070020780700200FB41CB58A
:10020000074B06AA7B4469460090059800F047F921
:100210000020694600F056F91CBC5DF814FB000094
:10022000BD0200002DE9F0410E4604460020206288
:100230002046E168884730B3252805D0D4E901215C
:100240009047206A401CF2E7E16820460027884773
:10025000050018D0A5F14100192802D820354FF427
:1002600000673246294620462760FFF78FFF40B1DE
:10027000012804D0F61D26F007060836D8E7361DFB
:10028000D6E72846DAE7206ABDE8F0812DE9F0419B
:100290000646002410687529314616A510D0AFF324
:1002A0000080002802DA404213A507E031688A077F
:1002B00001D512A502E0490704D511A5012401E0EA
:1002C000AFF3008000210A2206F1240709E0B0FB09
:1002D000F2FCB0FBF2F302FB1C00303078541846FD
:1002E000491C0028F3D123462A463046BDE8F04198
:1002F00000F077B8000000002D0000002B00000087
:1003000020000000032A40F2308010F0030C00F0BF
:10031000158011F8013BBCF1020F624498BF11F83F
:1003200001CB00F8013B38BF11F8013BA2F10402F8
:1003300098BF00F801CB38BF00F8013B11F0030370
:1003400000F0C580083AC0F0088051F8043B083A34
:1003500051F804CBA0E80810F5E7121D5CBF51F876
:10036000043B40F8043BAFF30080D20724BF11F8F0
:10037000013B11F801CB48BF11F8012B24BF00F855
:10038000013B00F801CB48BF00F8012B70474FF04C
:10039000000200B5134694469646203922BFA0E8D5
:1003A0000C50A0E80C50B1F12001BFF4F7AF0907E1
:1003B00028BFA0E80C5048BF0CC05DF804EB8900D2
:1003C00028BF40F8042B08BF704748BF20F8022B15
:1003D00011F0804F18BF00F8012B7047704770472D
:1003E00070472DE9F0470D4699469246044600F1C4
:1003F00024080168880604D5E06921F01001216015
:1004000000E00120A84201DD471B00E00027A169B0
:100410007A1902EB0900081AA0612078C00602D4FC
:100420002046AFF30080002608E0D4E901211AF845
:1004300006009047206A401C761C20624E45F4DB83
:100440002078C0060AD52046AFF3008006E0D4E944
:10045000012130209047206A401C2062381EA7F1FD
:100460000107F4DC07E0D4E9012118F80500904702
:10047000206A401C2062281EA5F10105F3DC2046FD
:10048000AFF300802078000602D50220BDE8F08797
:100490000120FBE701694A1C02610878704700B53A
:1004A0008FB0CDE901310021059105497944CDE9AD
:1004B000031011466846FFF7B5FE0FB000BD0000FF
:1004C000E5FFFFFF0A6802F8010B0A60704710B5EC
:1004D000203AC0F00B80B1E81850A0E81850B1E8FD
:1004E0001850A0E81850203ABFF4F5AF5FEA027C3C
:1004F00024BFB1E81850A0E8185044BF18C918C06C
:10050000BDE810405FEA827C24BF51F8043B40F80C
:10051000043B08BF7047D20728BF31F8023B48BFF1
:1005200011F8012B28BF20F8023B48BF00F8012B2F
:100530007047754600F02CF8AE46050069465346F4
:1005400020F00700854618B020B5FFF745FEBDE84E
:1005500020404FF000064FF000074FF000084FF02A
:10056000000BAC46ACE8C009ACE8C009ACE8C00977
:10057000ACE8C00921F007018D46704710B504466C
:10058000AFF300802046BDE81040FFF711BE000029
:10059000004870471800002001491820ABBEFEE754
:1005A0002600020070470000FEE7000070470000D0
:1005B000B0B5044600F024F9054640F20000C2F24E
:1005C00000000078611C18BF044400BF00F018F957
:1005D000401BA042FAD3B0BD2DE9F04F82B00E68A7
:1005E000002E00F0FD8041F20042C4F2010204231B
:1005F00040F2004E904208BF03234FF6FF7CC4F246
:10060000010E009300240123C1F2100C4FF0000AE8
:100610004FF000094BE000BF41F20002C4F20102BA
:10062000009F904208BF022704F00C030F229A405B
:100630002BEA020207FA03F34FEA9A051A4346F837
:1006400025204E6840F20C45F202DEF8082054BF27
:1006500022EA080242EA0802C4F20105CEF80820A4
:100660002A68B30254BF22EA080242EA08022A605A
:10067000B303DEF8042054BF22EA080242EA08026B
:10068000F303CEF80420DEF800204FF0010354BF3E
:1006900022EA080242EA0802CEF800200E680AF1B7
:1006A000010A36FA0AF204F1040400F0998003FA10
:1006B0000AFB16EA0B08F1D04E68664512DC122ED2
:1006C00056D8DFE806F0350B4D495555555555556B
:1006D0005555555555555545510000BFD1F80C900D
:1006E00046E000BF4FF6FF72C1F2210296420FDCD6
:1006F0000022C1F2110296421AD00022C1F2120267
:10070000964215D00022C1F22102964210D02FE06D
:100710000022C1F2220296420AD00022C1F2310226
:10072000964205D00022C1F23202964220D100BF8B
:100730008A684AB1012A14BFC0F814B0C0F810B0DA
:100740004FF0080914E000BF4FF0040910E000BFAB
:10075000CA6802F104090BE04FF0000908E000BF8D
:10076000CA6802F1080903E0CA6802F10C0900BF77
:1007700002462646B8F5807F24BF0432203E176823
:100780000F25B54027EA050509FA06F63543156039
:10079000CA79D2067FF582AF41F21803C4F2020390
:1007A0001A68AEF57E7642F001021A601A6802F00D
:1007B00001020192019A2AF0030256F802B040F6B3
:1007C0000002C4F20102904208D040F60042C4F296
:1007D000010290427FF420AF012725E7002723E79D
:1007E00002B0BDE8F08F00008068084018BF01200B
:1007F00070470000002A08BF09040161704700002B
:1008000040F27050C2F2000000687047002804BF38
:1008100001207047F0B581B0044690F83D0028B93A
:10082000002084F83C00204600F09AFA242084F846
:100830003D002068016821F001010160016841F478
:1008400000410160016821F40041016000F040FCBA
:10085000636848F2A16CC0F2010C40F60011C0F2CE
:100860003D0163453CBF48F28041C0F21E01884211
:1008700002D2012001B0F0BD4DF68361C4F21B31FC
:10088000A0FB01122168970CD1F804E04FF4967692
:100890002EF03F0545EA92454D60774348F63816FD
:1008A0000D6AC0F24106A7FB067625F03F076345B7
:1008B00038BF960C721C3A430A62CA6948F2A066B5
:1008C0004CF6FF77C0F20106B34222EA07020BD8CA
:1008D00001385B00B0FBF3F001306FF31F300428E8
:1008E00098BF04201BE000BFA768013857B1192743
:1008F0007B43B0FBF3F001306FF31F3070B100F5B4
:10090000804007E003EB4303B0FBF3F001306FF3EB
:100910001F3018B100F5004001E000BF0120104376
:10092000C8610868D4E9072320F0C00010431843C9
:100930000860886848F2FF3204F10C0790438CCFBE
:1009400018431043A6698860C86820F0FF00384348
:100950003043C860086840F0010008600020202192
:10096000206484F83D10206384F83E0001B0F0BD9F
:100970002DE9F04F83B01E46924688460446FFF7A5
:100980003FFF94F83D10202924D12168054600BF7F
:10099000886980071AD5FFF733FF401B21681A28A2
:1009A000F6D388698007F3D500202021206384F8DE
:1009B0003D1084F83E00216C41F02001216484F850
:1009C0003C00022003B0BDE8F08F00BF94F83C006B
:1009D000012803D1022003B0BDE8F08F4FF00109D8
:1009E00084F83C900868C00703D1086840F0010013
:1009F00008600868002720F400600860242084F85C
:100A00003D000020CFF6FF702764E06208F0FE088A
:100A1000BAF1010F88BFD1464FF0A00A4FF0200B6A
:100A200004E000BF01374F4500F0A28008680022B3
:100A300040F48070086020464FF001113346009565
:100A400001F0D6F92168002856D1C1F81080FFF7CF
:100A5000D7FE21684B694A6994F83D50A02D0546A0
:100A600005D013F0020008BF12F480601AD084F899
:100A70003DB048690A68800742F400720A6045D4B4
:100A80006FF48060486100BF88698007CAD5FFF7AE
:100A9000B7FE401B21681A28F6D388698007F3D572
:100AA0004AE000BFB6B100BFFFF7AAFE401BB0424C
:100AB00088BF84F83DA021684A69486994F83D30B0
:100AC000A02BD4D012F0020208BF10F48060EBD04B
:100AD000CDE700BFFFF794FE84F83DA021684A6986
:100AE000486994F83D30A02BC1D012F00202BED16B
:100AF00010F48060EED0BAE70868C00544BF4FF438
:100B000000702064032003B0BDE8F08F0020029045
:100B100048690290886902900298886901E000BFE4
:100B2000806980071AD5FFF76BFE411B20681A29E0
:100B3000F6D381698907F3D500202021206384F84A
:100B40003D1084F83E00216C41F02001216484F8BE
:100B50003C00012003B0BDE8F08F00BF202084F8E6
:100B60003D00002084F83C0003B0BDE8F08F00BFDA
:100B7000202084F83D00002084F83C00012003B0D0
:100B8000BDE8F08F2DE9F04383B01E461746894635
:100B90000446FFF735FE94F83D10202924D1054680
:100BA000206800BF816989071AD5FFF729FE411B1C
:100BB00020681A29F6D381698907F3D500202021FE
:100BC000206384F83D1084F83E00216C41F0200140
:100BD000216484F83C00022003B0BDE8F08300BF2C
:100BE00094F83C10012903D1022003B0BDE8F08342
:100BF000012184F83C100168C90703D1016841F064
:100C000001010160016840F2020821F40061016005
:100C1000212184F83D10102184F83E100021216428
:100C200067626685618DC0F201082185A8F1021115
:100C3000E162E16A0A9E11F5803F18BF01291DD1CA
:100C4000016841F48071016020464FF001110022DB
:100C50003346009501F0CCF850B120680068C0051B
:100C600044BF4FF400702064012003B0BDE8F0835E
:100C70002069B0F5804F07D1FE2015E00829DFD0AC
:100C8000216B1229DCD0DFE7062000EAD9102168A9
:100C9000F030086108F10601204632462B4601F08B
:100CA0008DF90028E0D1FF20216800EA09000861E1
:100CB0002046414632462B4601F080F90028D3D128
:100CC0000020029020684169029180690290029898
:100CD00006E000BF204631462A4601F02BF818BB3B
:100CE000208D68B3204631462A4601F0D3F9D8B9A1
:100CF000606A2168024612F8013B0B616262628DF4
:100D0000013A6285228D531E23854F697F07E1D505
:100D10001B04DFD0437802300B616062608D0138C4
:100D20006085901E2085D5E7206C04289CD1206822
:100D3000016841F400710160012003B0BDE8F08357
:100D40002068016841F400710160202084F83D00B2
:100D5000002084F83E0084F83C0003B0BDE8F08336
:100D600010B586B0016845F20040C4F2000081422F
:100D70004FF00001CDE90411CDE9021102D006B017
:100D800010BD00BF41F21804C4F20204216800F54E
:100D9000384041F008012160216801F0080101910B
:100DA0000199C0210291122103910321059102A909
:100DB000FFF712FC606840F400106060606800F4A7
:100DC00000100190019806B010BD000040F2000034
:100DD00040F27051C2F20000C2F2000100780A68CD
:100DE000104408607047000080B542F20000C4F271
:100DF0000200016841F010010160032000F07AF860
:100E00000F2000F005F800F027F8002080BD00005A
:100E100070B540F20006C2F2000640F210013278CE
:100E2000C2F200014FF47A730968B3FBF2F2044690
:100E3000B1FBF2F1084600F05FFB0F2C4FF001050B
:100E400008D838B94FF0FF3021460022002500F0C5
:100E500025F87460284670BD82B041F21800C4F2D3
:100E600002000168022241F001010160016801F005
:100E7000010101910199416841F080514160406850
:100E800000F08050009000980420C4F20100016836
:100E900062F31A61016002B07047000010B54EF6AF
:100EA0000C5CCEF2000CDCF80030C3F3022E8EF0A6
:100EB0000704042C28BF0424BEF103034FF0FF3EB7
:100EC0000EFA04F438BF0023A14399400EFA03F34D
:100ED0009A43114300F00F0200F160430901043A04
:100EE00003F564436244002848BF02F10C03197003
:100EF00010BD00004EF60C51CEF200010A684FF60C
:100F0000FF031A4060F30A2242F0806040F0FD7057
:100F100008607047002804BF012070472DE9F043A6
:100F200081B042F20008C4F202080446D8F800007A
:100F30000D4600F0070088420CD2D8F8000020F0DF
:100F400007002843C8F80000D8F8000000F00700A8
:100F5000A8426CD1206841F204098107C4F2020959
:100F600017D5410705D5D9F8001041F4E061C9F85B
:100F70000010010705D5D9F8001041F46051C9F8F7
:100F80000010D9F80010A26821F0F0011143C9F84F
:100F90000010C00742D1D8F8000000F00700A842B6
:100FA0000CD9D8F8000020F007002843C8F800004A
:100FB000D8F8000000F00700A84238D120684107A7
:100FC00007D5D9F80010E26821F4E0611143C9F8AF
:100FD0000010000708D5D9F80000216920F46050FE
:100FE00040EAC100C9F80000D9F8002002F00C0066
:100FF000082841F20020C0F27A004DD143F62E338A
:10100000C2F38341C0F60003595CD20338D440F6E2
:101010000010C0F23D0048433EE000BF606859F850
:10102000041C022808D0012826D1890306D40120F7
:1010300001B0BDE8F08300BF8901F8D5D9F80010F0
:1010400021F003010843C9F80000FFF7D9FB064669
:1010500041F28837D9F80000616800F00C00B0EB6D
:10106000810F98D0FFF7CCFB801BB842F2D9032048
:1010700001B0BDE8F08300BF8907D8D5DEE700BF27
:10108000D9F8002043F62C33C2F34042C0F60003E7
:101090009A5C4843B0FBF2F0D9F8001042F6B8521F
:1010A000C1F30311C0F60002515C40F2100220FAB5
:1010B00001F140F20400C2F200000068C2F2000236
:1010C0001160FFF7A5FE002001B0BDE8F08300002D
:1010D00040F2100041F20401C2F20000C4F2020129
:1010E0000068096842F6C852C1F30221C0F6000246
:1010F000515CC84070470000002804BF01207047C1
:101100002DE9F04182B00446007841F20006C007A4
:10111000C4F202060CD0706800F00C00042840F005
:1011200081803068800303D56068002800F0468124
:10113000207880071BD5706810F00C0F09D07068FC
:1011400000F00C00082840F087807068C00300F1B0
:1011500083803068800703D52069012840F02E8104
:101160003068616920F0F80040EAC1003060207802
:10117000000713D4207840072CD4E569002D00F037
:101180001881706800F00C00082840F0A780012D3D
:1011900040F00481012002B0BDE8F081A069002880
:1011A00000F084800020C4F242200121C0F88014A5
:1011B000FFF726FB054600BF706A800700F1B2808A
:1011C000FFF71EFB401B0228F6D9032002B0BDE842
:1011D000F08100BFF0695FEAC00808D4F06940F010
:1011E0008050F061F06900F080500090009847F264
:1011F0000007C4F200073868C00549D4386840F4D5
:1012000080703860FFF7FCFA054600BF3868C005FB
:101210003ED4FFF7F5FA401B6428F7D9032002B04B
:10122000BDE8F081706800F00C00082803D17068F8
:10123000C0033FF576AF61683068002900F00C818B
:10124000B1F5A02F00F00081B1F5803F40F01A8188
:1012500040F480301CE100BF2069002840F200000B
:10126000C4F2422000F0888001210160FFF7C8FA33
:10127000054600BF306880073FF572AFFFF7C0FA40
:10128000401B0228F6D9032002B0BDE8F08100BF60
:10129000E168306A002900F09D80052900F0928005
:1012A000012940F0AF8040F00100B1E00020C4F21D
:1012B00042200021C0F88014FFF7A2FA054600BFC3
:1012C000706A80077FF556AFFFF79AFA401B022835
:1012D000F6D9032002B0BDE8F08100BF0027C4F2B8
:1012E000422700203866FFF78BFA022D05460DD104
:1012F0003068800140F1DE80FFF782FA401B02284F
:101300004FF00300F4D902B0BDE8F08130688001ED
:101310004FD5FFF775FA401B02284FF00300F5D9AF
:10132000F1E700BF40F21000C2F20000006844F68E
:10133000D351C1F26201A0FB0101480A019000BF34
:1013400000BF0198411E002801913FF413AF00BF78
:101350000198411E002801913FF40CAF00BF019895
:10136000411E002801913FF405AF00BF0198411EC6
:1013700000280191E4D1FDE600210160FFF740FA69
:10138000054600BF306880077FF5F1AEFFF738FAF9
:10139000401B02284FF00300F4D9B4E77068216ABB
:1013A00000F480328A4209D1616A00F470108842E8
:1013B00004D1002002B0BDE8F08100BF012002B0DE
:1013C000BDE8F08140F004003062306A40F0010076
:1013D0001EE000BF20F001003062306A20F00400FF
:1013E0003062FFF70DFA054641F28837306A800710
:1013F00020D5FFF705FA401BB8424FF00300F5D99E
:1014000081E700BF20F001003062306A20F0040064
:101410003062FFF7F5F9054641F28837306A8007F8
:1014200008D4FFF7EDF9401BB842F7D9032002B00A
:10143000BDE8F081B8F1000F3FF59FAEF06920F0F4
:101440008050F06199E600BF40F480203060306841
:1014500040F480301CE000BF20F480303060306801
:1014600020F480203060FFF7CBF905463068800318
:101470007FF55EAEFFF7C4F9401B64284FF0030010
:10148000F4D940E720F480303060306820F48020C8
:101490003060FFF7B5F90546306880033FF548AE88
:1014A000FFF7AEF9401B6428F6D9032002B0BDE86F
:1014B000F08100BF206AB0F5803F05D17168A26855
:1014C00021F40031114371607168626A21F4741172
:1014D00011430843706001203866FFF791F9044614
:1014E000306880013FF565AFFFF78AF9001B0228DD
:1014F0004FF00300F4D906E7411E0020B0EB116F56
:101500001CBF012070474EF21002CEF20002516063
:101510004EF62351CEF20001F0230B7007219060AC
:101520001160704790F83C20012A4FF0020236D03B
:1015300010B580F83D200268D2F804E0D2F808C067
:101540000C682EF07003234340F2FF74C4F20004D1
:10155000A24253600ADCB2F1804F13D040F2004344
:10156000C4F200039A420DD011E000BF42F60043DE
:10157000C4F201039A4205D040F60003C4F200030E
:101580009A4204D149682CF08003194391600121EB
:10159000002280F83D1080F83C20BDE81040104645
:1015A00070470000002804BF0120704710B590F874
:1015B0003D1031B9002180F83C10044600F070F86D
:1015C0002046022180F83D10016840F2FF740B684C
:1015D000C4F2000442F6004CA142C4F2010C15DC36
:1015E000B1F1804F1AD040F20042C4F200029142A1
:1015F00014D0A14218DCB1F1804F1DD040F200425E
:10160000C4F20002914217D01AE000BF614505D034
:1016100040F60002C4F200029142EAD1826823F04F
:1016200070031343A142E6DD614505D040F6000298
:10163000C4F20002914203D1026923F440731343C0
:10164000846923F08002D0F804E0C3682243614536
:101650000A60CB62C1F828E002D14269CCF83020A0
:1016600001224A610B69DB0703D00B6923F00103F8
:101670000B6180F8462080F83E2080F83F2080F8FB
:10168000402080F8412080F8422080F8432080F8F4
:10169000442080F8452080F83D20002010BD000047
:1016A00082B00068B0F1804F14D042F60041C4F21D
:1016B000010188421BD141F21800C4F20200016806
:1016C00041F400610160006800F40060019001983D
:1016D00002B0704741F21800C4F20200416841F0C4
:1016E00001014160406800F001000090009802B0E4
:1016F0007047000090F83D1001291CBF0120704781
:10170000022180F83D10006840F2FF71C4F2000130
:10171000884209DCB0F1804F12D040F20041C4F29F
:10172000000188420CD012E042F60041C4F20101EF
:10173000884205D040F60001C4F20001884206D17B
:10174000816801F00701062904BF00207047016885
:1017500041F00101016000207047000090F83C203A
:10176000012A4FF002026CD080B580F83D20D0F8FD
:1017700000C04FF67772DCF8083023EA0202CCF89A
:1017800008200B684F2B29DC1F2B45DD202B46D072
:10179000302B44D0402B40F0AF80D1F804E0C96832
:1017A000DCF82030DCF8202022F00102CCF82020E8
:1017B000DCF8182022F0F00242EA011123F00A02BC
:1017C00042EA0E02CCF81810CCF82020DCF8081001
:1017D00041F0470121F0300128E000BF6F2B33DDDD
:1017E000B3F5005F74D0B3F5805F21D0702B40F06B
:1017F0008380D1E901E3C968DCF8082043EA0E03DD
:1018000022F47F4243EA01211143CCF80810DCF8AE
:10181000081041F0770109E00BB1102B6CD1DCF816
:10182000081021F07001194341F00701CCF80810AD
:101830000022012180F83D10002180F83C10BDE815
:1018400080401046704700BF502B21D0602B53D1F1
:10185000D1F804E0C968DCF82030DCF8202022F060
:101860001002CCF82020DCF8182022F4704242EA62
:10187000013123F0A00242EA0E12CCF81810CCF885
:101880002020DCF8081041F0670121F01001CDE7BD
:10189000D1F804E0C968DCF82030DCF8202022F020
:1018A0000102CCF82020DCF8182022F0F00242EAF5
:1018B000011123F00A0242EA0E02CCF81810CCF80B
:1018C0002020DCF8081041F0570121F02001ADE79D
:1018D000D1E901E3C968DCF8082043EA0E0322F4E9
:1018E0007F4243EA01211143CCF80810DCF80810CC
:1018F00041F480419AE700BF01229AE780B586B0A3
:101900000068B0F1804F4FF00000CDE90400CDE950
:10191000020001D006B080BD41F21800C4F20200FE
:10192000016841F004010160006802A900F00400B0
:10193000019001980120029002200390059040F64A
:101940000000C4F20100FEF747FE06B080BD0000B3
:1019500090F83C30012B04BF022070474FEAB202DE
:10196000032A00F2F1802DE9F043DFE802F003A53D
:101970003B7500BF036842F600461D6A1A6AC4F24E
:10198000010622F001021A621A465C6852F818CF6A
:10199000B3428E68D1F800E025F0020545EA06055D
:1019A0000CD1CE68D1E9057824F4407425F00C05FB
:1019B00026F004063C43354344EA08042CF0730740
:1019C00047EA0E075C609F614F6809695F631D62AB
:1019D0009F6947F008079F619F6927F004079F618F
:1019E000A6E000BF036842F600461D6A1A6AC4F208
:1019F000010622F480721A621A46D3F804C052F823
:101A00001CEFB3428E680C6825F4007545EA062584
:101A10000FD1CE68D1E90598360240F2FF4725F490
:101A20004065BE4335432CF4405748EA090647EA6F
:101A3000061C2EF073072743C3F804C0DF614F680C
:101A40000969DF631D62DF6947F00807DF61DF694D
:101A500027F00407DF616BE0036842F60047D3F824
:101A600020C01A6AC4F2010722F480521A621A4690
:101A70005C6852F81C5FD1F800E08E68BB4204D16C
:101A80004F6924F4804444EA87142CF4005747EA51
:101A9000063725F4E64646EA0E265C60DE614E68AF
:101AA00009691E641F62DF6947F40067DF61DF694F
:101AB00027F48067DF613AE0036842F600461D6A5A
:101AC0001A6AC4F2010622F010021A621A46D3F80A
:101AD00004C052F8184FB3428E68D1F800E025F0E8
:101AE000200545EA06150FD1CE68D1E905986FF0BB
:101AF000400725F0C00507EA061635432CF4406779
:101B000048EA090647EA860C24F4E64444EA0E272C
:101B1000C3F804C09F614F6809699F631D629F6994
:101B200047F400679F619F6927F480679F610902FE
:101B30001368194311600021BDE8F043002280F8CA
:101B40003C200846704700BF0121002280F83C205D
:101B500008467047002804BF0120704710B590F870
:101B60003D1031B9002180F83C10044600F070F8B7
:101B70002046022180F83D10016840F2FF740B6896
:101B8000C4F2000442F6004CA142C4F2010C15DC80
:101B9000B1F1804F1AD040F20042C4F200029142EB
:101BA00014D0A14218DCB1F1804F1DD040F20042A8
:101BB000C4F20002914217D01AE000BF614505D07F
:101BC00040F60002C4F200029142EAD1826823F09A
:101BD00070031343A142E6DD614505D040F60002E3
:101BE000C4F20002914203D1026923F4407313430B
:101BF000846923F08002D0F804E0C3682243614581
:101C00000A60CB62C1F828E002D14269CCF83020EA
:101C100001224A610B69DB0703D00B6923F0010342
:101C20000B6180F8462080F83E2080F83F2080F845
:101C3000402080F8412080F8422080F8432080F83E
:101C4000442080F8452080F83D20002010BD000091
:101C500070470000C1B1042908D0082914BF4122EF
:101C60004022825C012A05D016E000BF3F22825C40
:101C7000012A11D10222082910D0042914BF80F8AA
:101C8000412080F83F200BE090F83E20012A03D14C
:101C9000022280F83E2003E00120704780F84020B7
:101CA000006801F01F010122036A8A4023EA020151
:101CB0000162036A42F64441C4F201011A43A1F1F0
:101CC0004403984202620FD040F2FF71C4F2000157
:101CD000884213DCB0F1804F1CD040F20041C4F2C6
:101CE0000001884216D01CE00A6842F400420A60F3
:101CF00040F2FF71C4F200018842EBDD42F6004180
:101D0000C4F20101884205D040F60001C4F200018E
:101D1000884206D1816801F00701062904BF00202E
:101D20007047016841F00101016000207047000028
:101D3000FEE7000070B50368044653F8140F40072F
:101D400011D40E46481C29D086BB00BF1868400538
:101D500027D4FEF755FD236853F8140F400737D5F5
:101D600018684007F2D5002070BD00BF1868400712
:101D7000F9D41868400514D418684007F3D41868DB
:101D800040050ED418684007EDD41868400508D403
:101D9000186840074FF0000048BF70BD1868400544
:101DA000E4D56FF480601860042012E0154603E06B
:101DB00053F8140F4007D6D418684005F1D4FEF745
:101DC0001FFD401B2368B042F2D958694007EFD489
:101DD000202000212022216384F83D2084F83E1039
:101DE000226C10432064012084F83C1070BD000078
:101DF0002DE9F041054600681E46144601F47F02B5
:101E000001338FB242D0DDF81880B2F5803F40F048
:101E1000878040693840C01BB0FA80F04009A0427A
:101E200040F0C8804EB924E040693840C01BB0FA89
:101E300080F04009A04240F0BD80FEF7E1FCA0EB3D
:101E400008012868B142EFD941693940C91BB1FA8C
:101E500081F14909A142E7D19BE000BF40693840C8
:101E6000C01BB0FA80F04009A0424FF0000040F0E3
:101E7000A280FEF7C5FC286841693940C91BB1FA48
:101E800081F14909A142E9D183E000BFB2F5803F69
:101E900024D100BF41693940C91BB1FA81F1490918
:101EA000A14240F0878041693940C91BB1FA81F1F4
:101EB0004909A14240F07E8041693940C91BB1FA0D
:101EC00081F14909A14275D141693940C91BB1FA73
:101ED00081F14909A142DDD06CE000BF8169394040
:101EE000C91BB1FA81F14909A14263D18169394025
:101EF000C91BB1FA81F14909A1425BD1816939401D
:101F0000C91BB1FA81F14909A14253D18169394014
:101F1000C91BB1FA81F14909A142DFD04AE000BFF3
:101F200080693840C01BB0FA80F04009A04241D11E
:101F300046B923E080693840C01BB0FA80F0400900
:101F4000A04237D1FEF75CFCA0EB08012868B14243
:101F5000F0D981693940C91BB1FA81F14909A1421F
:101F6000E8D116E080693840C01BB0FA80F0400923
:101F7000A0424FF0000018BFBDE8F081FEF740FC22
:101F8000286881693940C91BB1FA81F14909A14228
:101F9000E8D100202021286385F83D1085F83E0017
:101FA000296C41F02001296485F83C000120BDE83E
:101FB000F08100BF0020BDE8F0810000F0B581B0E5
:101FC000044600681D4643698FB203EA0701B9421F
:101FD00002D1002001B0F0BD4169164601323CD06B
:101FE000490512D47EB300BFFEF70AFC411B2068EE
:101FF000B14203D941693940B9422BD141693940D5
:10200000B942E6D041694905EED5016841F4007155
:1020100001606FF48061416104200021202221636E
:1020200084F83D2084F83E10226C1043206484F82C
:102030003C10012001B0F0BD41693940B942C8D01F
:1020400041694905E1D4FEF7DBFB2068416939406D
:10205000B942F1D02020E0E741694905D5D4416972
:102060003940B942B5D041694905CED441693940BA
:10207000B942AED041694905C7D441693940B94236
:10208000A7D041694905C0D441693940B942E3D17B
:102090009FE7000070B50368044653F8140F00066C
:1020A00011D40E46481C29D086BB00BF18684005D5
:1020B00027D4FEF7A5FB236853F8140F000637D585
:1020C00018680006F2D5002070BD00BF1868000631
:1020D000F9D41868400514D418680006F3D41868B9
:1020E00040050ED418680006EDD41868400508D4E1
:1020F000186800064FF0000048BF70BD1868400522
:10210000E4D56FF480601860042012E0154603E007
:1021100053F8140F0006D6D418684005F1D4FEF722
:102120006FFB401B2368B042F2D958690006EFD418
:10213000202000212022216384F83D2084F83E10D5
:10214000226C10432064012084F83C1070BD000014
:10215000FEE70000FEE700007047000080B540F297
:10216000D400C2F200004FF48061FEF710F9BDE820
:10217000804000F035BA000040F2CC02C2F200020A
:1021800050809180704700002DE9F04182B040F20C
:10219000D440C2F200007821012244F62063FEF709
:1021A000E7FB4FF0000418B1204602B0BDE8F08113
:1021B00040F2D4454FF42E40C2F20005ADF80600BF
:1021C0000A260DF106022846782102230096FEF722
:1021D000D9FC4FF400580DF106022846782102235D
:1021E000ADF806800096FEF7CDFC4FF480570DF158
:1021F0000602284678210223ADF806700096FEF705
:10220000C1FC4FF43040ADF806000DF1060228463F
:10221000782102230096FEF7B5FC4FF44840ADF854
:1022200006000DF106022846782102230096FEF7EB
:10223000A9FC0DF10602284678210223ADF80640DC
:102240000096FEF79FFC0DF1060228467821022336
:10225000ADF806700096FEF795FC4FF48040ADF89F
:1022600006000DF106022846782102230096FEF7AB
:1022700089FC4FF40140ADF806000DF10602284636
:10228000782102230096FEF77DFC4FF47F40ADF8E5
:1022900006000DF106022846782102230096FEF77B
:1022A00071FC4FF42140ADF806000DF106022846FE
:1022B000782102230096FEF765FC4FF42640ADF826
:1022C00006000DF106022846782102230096FEF74B
:1022D00059FC4FF42840ADF806000DF106022846DF
:1022E000782102230096FEF74DFC4FF47C50ADF8A8
:1022F00006000DF106022846782102230096FEF71B
:1023000041FC4FF42440ADF806000DF106022846CA
:10231000782102230096FEF735FC4FF45340ADF8C8
:1023200006000DF106022846782102230096FEF7EA
:1023300029FC0DF10602284678210223ADF806405B
:102340000096FEF71FFC4FF45540ADF806000DF166
:1023500006022846782102230096FEF713FC4FF46C
:102360007040ADF806000DF10602284678210223E0
:102370000096FEF707FC4FF45940ADF806000DF14A
:1023800006022846782102230096FEF7FBFB4FF455
:102390000850ADF806000DF1060228467821022308
:1023A0000096FEF7EFFB4FF45A40ADF806000DF132
:1023B00006022846782102230096FEF7E3FB4FF43D
:1023C0009050ADF806000DF1060228467821022350
:1023D0000096FEF7D7FB4FF45B40ADF806000DF119
:1023E00006022846782102230096FEF7CBFB0DF16A
:1023F0000602284678210223ADF806800096FEF7F3
:10240000C1FB4FF40D40ADF806000DF10602284661
:10241000782102230096FEF7B5FB4FF4A050ADF8EB
:1024200006000DF106022846782102230096FEF7E9
:10243000A9FB4FF42F40ADF806000DF10602284627
:10244000782102230096FEF79DFB4FF43850ADF83B
:1024500006000DF106022846782102230096FEF7B9
:1024600091FB40F2D400C2F200004FF48061FDF70E
:102470008EFF00F0B5F840F2CC00C2F20000C0F8C8
:1024800002400124204602B0BDE8F0812DE9F04F62
:1024900089B040F2CC04C2F20004B4F802E091F832
:1024A00000C00CEB0E037F2B06D8B4F804804E78E6
:1024B00006EB08033F2B03D9002009B0BDE8F08FDD
:1024C000002E009064D023782038B3FA83F3029072
:1024D00058094B6800270193831AB3FA83F30790D6
:1024E00058096346002A18BF012208920690CDE9D8
:1024F000038103E000230137B74249D2002BF9D012
:1025000008EB0705ACB23F2CF5D80298019A70434E
:1025100002EB400030F8179005F00700012202FAA4
:1025200000F64FF68070C0F2070091F800C000EA94
:1025300005186FEA060A0025059702E00135654592
:102540001ED20EEB05039BB27F2BF7D840F2D400CE
:1025500009FA05FB43EA0803C2F200005FEA0B41F7
:10256000C25C0699DDE9077458BF84EA070102EAF4
:102570000A04002918BF42EA0604C454DEE700BF7B
:102580000499DDF80C804E78059F6346B3E700BFE1
:102590005FFA8CF040F2CC017044C2F20001488036
:1025A0005DF8240BBDE8F08F0378002B04BF0020FA
:1025B000704770B514460D46461C00BFD8B2294678
:1025C0002246FFF763FF16F8011C884204D116F873
:1025D000013B002BF2D10021BDE870400846704756
:1025E0002DE9F04FC1B00DF1040B40F2D4460BF1D0
:1025F00001094FF000086FF07F050A24C2F20006BF
:102600004FF0000A40F2D4008035C2F200002F18CB
:102610004AF0B0008DF80500304678215A46022372
:102620008DF804800094FEF7ADFA304678215A46C2
:102630000223ADF804800094FEF7A4FA4FF4805012
:10264000ADF80400304678215A4602230094FEF784
:1026500099FA40208DF80400484639468022FDF75B
:1026600051FE304678215A4681230094FEF78AFABB
:10267000B5F5607F0AF1010AC4D141B0BDE8F08F21
:1026800070470000FEF7A2BB70470000FEE70000A5
:1026900092B0FEF7A9FB00240120CDE90B44CDE95F
:1026A000094406900A904FF4E0104FF4803102255F
:1026B0000F9006A8CDE90714CDE90D51FEF71CFDDA
:1026C00020B1EFF3108072B6FEE700BF0F20CDE916
:1026D00000054FF48060CDE90304684602210294AE
:1026E000FEF718FC20B1EFF3108072B6FEE700BFD2
:1026F000002741F21800CDE90877CDE90677C4F24A
:102700000200016840F6000441F010010160016818
:10271000C4F2010401F01001009100990168002247
:1027200041F02001016001684FF4007901F02001BF
:1027300000910099016841F004010160016801F015
:10274000040100910099016841F0080101600068EE
:102750004FF4007100F00800009000982046FEF74A
:1027600049F84FF4005004F5006806AECDE90607BD
:102770000225404631460895FDF72EFF204631469A
:10278000CDE906570895FDF727FF4FF48070CDE996
:102790000607204631460897FDF71EFF0120CDE9C8
:1027A000070720463146CDF818900995FDF714FF2C
:1027B00040F2D440A4F53441C2F2000041F6802238
:1027C0004FF48043C0F2060280E88600C0E903733C
:1027D000C0E90577C0E90777FEF718F820B1EFF3F5
:1027E000108072B6FEE700BF40F27809C2F200091D
:1027F00004F51051484640F80C1F47214FF6FF7270
:102800000997CDE90777CDE90077C0E90117C0E95D
:102810000327C0E90577FEF7C5FE28B1EFF3108066
:1028200072B600BFFEE700BF4FF4805009F10C07FD
:10283000069006A93846FEF791FF28B1EFF3108005
:1028400072B600BFFEE700BF69463846FEF76AFE73
:1028500020B1EFF3108072B6FEE700BF40F22850BF
:102860000021C2F200004FF0804240F2833340F278
:10287000E7360391CDE90111CDE91011CDE90B1136
:10288000CDE90911C0E90023C0E9021601618161A7
:10289000FEF788FE20B1EFF3108072B6FEE700BFAE
:1028A0004FF48050009040F22850C2F20000694678
:1028B000FEF754FF20B1EFF3108072B6FEE700BFC1
:1028C00040F22850C2F20000FFF744F920B1EFF3C4
:1028D000108072B6FEE700BF40F22850C2F200003E
:1028E00010A9FEF71FFE28B1EFF3108072B600BFEB
:1028F000FEE700BF6020069040F228504FF0000A2B
:10290000C2F2000006A90022CDE907AACDF828A04E
:10291000FFF71EF820B1EFF3108072B6FEE700BF9C
:1029200040F22856C2F200064DF6EF053046CFF6CB
:10293000FF75FEF7E3FFFFF727FC3846FEF7DAFEE8
:1029400030460021FFF786F930687D21002741637A
:1029500004E000BF00276420FDF72AFE20464FF464
:1029600000710122FDF746FFD9F80C00C0F824A041
:10297000416A092908D8416A092905D8416A092903
:1029800002D8416A0A29F3D320464FF4007100228D
:10299000FDF730FFAB4600BF20464FF48071FDF7D6
:1029A00023FF18B91BF1010BF6D30EE0D9F80C0088
:1029B0002E46C0F824A000BF20464FF48071FDF7DA
:1029C00013FF012836D10136F6D3C9F804A02046FA
:1029D0000221FDF709FF384302D09FB9BAE700BFD3
:1029E000FDF70EFFC9F8080040464FF400510022E1
:1029F000FDF700FF40F22850C2F200000068C82135
:102A000041630127FDF7FCFED9F80810401A41F296
:102A1000883188429FD340F22850C2F200000068FB
:102A20007D21416340464FF400510122FDF7E2FE53
:102A300090E700BFD9F80C00406A00F0ACF84CF207
:102A40009C4246F67203CBF22002C3F6A17300F05B
:102A5000B5F800230022C3F6E07300F0AFF800F0F1
:102A60006DF8411E0929C9F80400B0D8022801D226
:102A700064200CE0092801D9002008E064214843C3
:102A8000643880B24EF28F325043A1EBD04089F8C7
:102A90000000FFF763FB00200021FFF76DFB40F211
:102AA00008061DA019A1C2F20006002F08BF0846A3
:102AB00031460122FFF778FDFFF792FD99F80020DB
:102AC00006AD284617A1FDF799FB00201421FFF75A
:102AD00053FB284631460122FFF766FDD9F8042052
:102AE0006D46284612A1FDF789FB00202821FFF73B
:102AF00043FB284631460122FFF756FDFFF770FDE4
:102B00004DF6EF05CFF6FF7561E700BF42696E2015
:102B1000436C6F736564000042696E204F70656E90
:102B2000656400004C6576656C20256425250000F1
:102B3000446973743A20256420636D004FEA115391
:102B4000A3F58063D3F11E03A8BFD3F1200C08DBEB
:102B50004FF0004242EAC12252EA505232FA03F0E8
:102B6000704709420BD4102BC4BF0020704703F5F7
:102B7000787CBCF1FF3F05D04FF0FF3070474FF03D
:102B80000000704770B500F0C3F800BF4992248080
:102B900000207047F0E7B0FA80F310FA03F10AD092
:102BA000C3F11D0303F580634FEA03524FEA41501E
:102BB00002EBD12170474FF00000704770B5DFF88D
:102BC00048C11CEA111E1EBF1CEA13159EEA0C0F19
:102BD00095EA0C0F00F06F8081EA03044EEAD47E80
:102BE000AE4421EA4C1123EA4C1341F4801143F422
:102BF0008013AEF17F7EA1FB024CA0FB036536196A
:102C000055EB0C05A1FB034C4CF10003A0FB021C8F
:102C100016EB0C06654153F10003094218BF46F05C
:102C2000010613F4007F0BD14FEA03314FEA053060
:102C300041EA155140EA165034036FF003020AE0EE
:102C40004FEAC3214FEAC52041EA555140EA5650A8
:102C5000F4026FF0020202EB2E4201EB025585EA0C
:102C6000CE710AD05FEA440C18BF24F0004450F142
:102C7000000041F1000120EAD47040F2FE7C624580
:102C800000D270BDA84214BF4FF080444FF04044C2
:102C9000002E08BF0024BEF1806FA8BFA1F1C04183
:102CA000BDE8704080F2828001F1C04101F0004136
:102CB0004FF0000070470CEA13159EEA0C0F18BF86
:102CC00095EA0C0F06D081EA030E4FF000000EF0DB
:102CD000004170BD00F01CF88900013E00F007B80B
:102CE00000F009B84FEA430C5FEA5C5C08D081EA67
:102CF000030100F05BB84FEA410C5FEA5C5CF6D17F
:102D000002494FF0000070470000FF070000F87F05
:102D10000EF1020E2EF0030E5EF8046B364205D45F
:102D2000012A43EB030515F5001F12D8012841EBDA
:102D3000010C1CF5001F0CD80ED14FEAD17C0CEB16
:102D40004C0C0CF1020C15F5001F08BF4CEBD37CAA
:102D500004E04FF0080C01E04FEAD37C0CEB4C058B
:102D600026FA05F606F00706B6F1040C06D20EEBBD
:102D7000860CBDE870404CF0010C6047DFE80CF0B9
:102D8000090B02024FF00041A1F500214FF00000B5
:102D900070BD19461046012851EB010418BFD4F547
:102DA000001484BF002001F0004170BD0808A0F5A8
:102DB00000114FEA310170470000000000000000E0
:102DC00001020304060708090000000001020304D1
:102DD00000000000000000000000000000000000F3
:102DE00000000000000000000000000000000000E3
:102DF000000000000000000C000C000C000C000C97
:102E0000000C000C000C000C000C000C0000000C6E
:102E1000000C0000000000000000001B001B001B55
:102E2000001B001B0000000000000000000000006C
:102E300000000000000000000000000000008019F9
:102E4000801980198019C07FC07F80190033C07F2E
:102E5000C07F003300330033003300000000000067
:102E60000000001E003F807580650074003C001E5D
:102E700000078005806580658075003F001E0004A6
:102E8000000400000000007000D840D8C0D880D9ED
:102E900000730006000C801BC036C066C046C0062A
:102EA00080030000000000000000001E003F00330F
:102EB00000330033001E000CC03CC066806380619C
:102EC0008063C03E801C0000000000000000000C79
:102ED000000C000C000C000C0000000000000000C2
:102EE00000000000000000000000000000000000E2
:102EF000800000010003000600060004000C000C26
:102F0000000C000C000C000C00040006000600037E
:102F100000018000002000100018000C000C0004CC
:102F20000006000600060006000600060004000C6D
:102F3000000C0018001000200000000C002D003FC5
:102F4000001E003300000000000000000000000030
:102F50000000000000000000000000000000000071
:102F60000000000C000C000C000CC0FFC0FF000CA7
:102F7000000C000C000C000000000000000000002D
:102F80000000000000000000000000000000000041
:102F900000000000000000000000000C000C000415
:102FA0000004000800000000000000000000000015
:102FB000000000000000001E001E000000000000D5
:102FC0000000000000000000000000000000000001
:102FD00000000000000000000000000000000000F1
:102FE0000000000C000C00000000000000000003C6
:102FF000000300030006000600060006000C000C9B
:10300000000C000C00180018001800000000000060
:103010000000001E003F0033806180618061806D90
:10302000806D8061806180610033003F001E000080
:103030000000000000000006000E001E0036002602
:103040000006000600060006000600060006000650
:1030500000060000000000000000001E003F80731A
:1030600080618061800100030006000C00180030C0
:103070000060807F807F0000000000000000001CD6
:10308000003E006300630003000E000E0003800199
:10309000800180618073003F001E0000000000007E
:1030A00000000006000E000E001E001E0016003676
:1030B00000360066807F807F000600060006000064
:1030C000000000000000007F007F006000600060E2
:1030D000006E007F80638001800180618073003F0B
:1030E000001E0000000000000000001E003F8033B2
:1030F00080610060006E007F80738061806180610C
:103100008033003F001E0000000000000000807FB0
:10311000807F80010003000300060006000C000C05
:10312000000C000800180018001800000000000043
:103130000000001E003F8063806180610021001E4E
:10314000003F8061806180618061003F001E00005F
:10315000000000000000001E003F007380618061DD
:1031600080618073803F801D800180610073003F1B
:10317000001E000000000000000000000000000031
:103180000000000C000C0000000000000000000027
:103190000000000C000C0000000000000000000017
:1031A0000000000000000000000C000C0000000007
:1031B000000000000000000C000C000400040008E7
:1031C000000000000000000080008003000E0038B6
:1031D00000600038000E8003800000000000000046
:1031E0000000000000000000000000000000807FE0
:1031F000807F00000000807F807F000000000000D2
:1032000000000000000000000000000000000000BE
:1032100000400070001C000780010007001C0070C7
:103220000040000000000000000000000000001F3F
:10323000803FC071C060C000C00180030007000E65
:10324000000C000C0000000C000C0000000000004E
:103250000000001E003F803180718063806F806DB0
:10326000806D806F806700600032003E001C0000AF
:10327000000000000000000E000E001B001B001BE1
:10328000001B80318031803F803F8031C060C06052
:10329000C0600000000000000000007C007E0063B1
:1032A000006300630063007E007E006380618061D4
:1032B0008063007F007E0000000000000000001E10
:1032C000003F80318061006000600060006000604D
:1032D000006080618031003F001E0000000000009F
:1032E0000000007C007F00638063806180618061FA
:1032F00080618061806100630063007E007C00006B
:10330000000000000000807F807F0060006000609F
:103310000060007F007F0060006000600060807FD0
:10332000807F0000000000000000807F807F006040
:10333000006000600060007F007F0060006000604F
:103340000060006000600000000000000000001E3F
:10335000003F8031806100600060006080638063B6
:10336000806180618031803F001E0000000000000D
:103370000000806180618061806180618061807F08
:10338000807F8061806180618061806180610000F8
:10339000000000000000003F003F000C000C000C8B
:1033A000000C000C000C000C000C000C000C003F8A
:1033B000003F00000000000000008001800180014B
:1033C0008001800180018001800180018061806135
:1033D0008073003F001E0000000000000000C0607D
:1033E0008061006300660066006C0078007C006607
:1033F0000066006380618061C06000000000000022
:10340000000000600060006000600060006000601C
:1034100000600060006000600060807F807F0000CE
:10342000000000000000C071C071C07BC07AC06A9B
:10343000C06AC06EC064C060C060C060C060C06070
:10344000C060000000000000000080718071807981
:1034500080798079806D806D806D80658067806700
:103460008067806380630000000000000000001E91
:10347000003F003380618061806180618061806194
:10348000806180610033003F001E000000000000EA
:103490000000007E007F80638061806180618063C6
:1034A000007F007E0060006000600060006000003F
:1034B000000000000000001E003F003380618061BA
:1034C0008061806180618061806580670033803FBA
:1034D000401E0000000000000000007E007F8063AE
:1034E000806180618063007F007E0066006300630E
:1034F00080618061C0600000000000000000000EDC
:10350000001F8031803100300038001E000780032A
:10351000806180618031003F001E000000000000DB
:103520000000C0FFC0FF000C000C000C000C000CE1
:10353000000C000C000C000C000C000C000C000037
:103540000000000000008061806180618061806116
:103550008061806180618061806180618073003FF3
:10356000001E0000000000000000C060C060C060DD
:10357000803180318031001B001B001B001B000EBE
:10358000000E000E00040000000000000000C0C09B
:10359000C0C0C0C0C0C0C0C0C0CC804C804C805E29
:1035A00080528052807380618061000000000000C2
:1035B0000000C0C0806080610033003B001E000C32
:1035C000000C001E001F003B80718061C0C0000025
:1035D000000000000000C0C0806180610033003343
:1035E000001E001E000C000C000C000C000C000C57
:1035F000000C0000000000000000803F803F8001C0
:10360000000300030006000C000C00180018003036
:103610000060807F807F000000000000000F000F2E
:10362000000C000C000C000C000C000C000C000C3A
:10363000000C000C000C000C000C000C000F000F24
:103640000000001800180018000C000C000C000C02
:103650000006000600060006000300030003000049
:1036600000000000001E001E000600060006000606
:10367000000600060006000600060006000600061A
:1036800000060006001E001E0000000C000C001EBC
:1036900000120033003380618061000000000000F0
:1036A000000000000000000000000000000000001A
:1036B000000000000000000000000000000000000A
:1036C000000000000000000000000000E0FF00001B
:1036D000000000380018000C00000000000000008E
:1036E00000000000000000000000000000000000DA
:1036F0000000000000000000000000000000001FAB
:10370000803F80618001801F803F80618063807F77
:10371000C038000000000000000000600060006091
:103720000060006E007F80738061806180618061D5
:103730008073007F006E00000000000000000000A9
:10374000000000000000001E003F807380610060E8
:10375000006080618073003F001E000000000000D8
:1037600000008001800180018001801D803F807306
:1037700080618061806180618073803F801D000076
:103780000000000000000000000000000000001E1B
:10379000003F00738061807F807F00608071003F08
:1037A000001E0000000000000000C007C00F000C59
:1037B000000C807F807F000C000C000C000C000CC3
:1037C000000C000C000C00000000000000000000D5
:1037D00000000000801D803F8073806180618061F7
:1037E00080618073803F801D80018063007F003E88
:1037F00000000060006000600060006F807F8071EA
:103800008061806180618061806180618061000091
:103810000000000000000006000600000000003E5E
:10382000003E000600060006000600060006000630
:103830000006000000000000000600060000000076
:10384000003E003E000600060006000600060006D8
:103850000006000600060046007E003C00000060F6
:10386000006000600060806100630066006C007CA6
:103870000076006300638061C0600000000000000B
:103880000000003E003E000600060006000600069E
:1038900000060006000600060006000600060000FE
:1038A000000000000000000000000000000080DDBB
:1038B000C0FFC0CEC0CCC0CCC0CCC0CCC0CCC0CC73
:1038C000C0CC00000000000000000000000000006C
:1038D0000000006F807F8071806180618061806105
:1038E0008061806180610000000000000000000035
:1038F000000000000000001E003F807380618061B6
:10390000806180618073003F001E000000000000A5
:103910000000000000000000006E007F80738061E6
:103920008061806180618073007F006E0060006054
:10393000006000600000000000000000801D803F6B
:10394000807380618061806180618073803F801DB1
:103950008001800180018001000000000000000063
:1039600000000067803F0039003000300030003038
:1039700000300030003000000000000000000000B7
:10398000000000000000001E803F80610060007F9A
:10399000803F80018061007F001E00000000000069
:1039A00000000000000800180018007F007F0018C9
:1039B00000180018001800180018801F800F000061
:1039C0000000000000000000000000000000806116
:1039D0008061806180618061806180618063807FBF
:1039E000803D00000000000000000000000000001A
:1039F0000000C060803180318031001B001B001B43
:103A0000000E000E00060000000000000000000094
:103A100000000000000080DD80DD80DD00550055E5
:103A2000005500770077002200220000000000000F
:103A3000000000000000000000008061003300333F
:103A4000001E000C000C001E0033003380610000DB
:103A500000000000000000000000000080618061A4
:103A6000803100330033001B001B001B000E000ED2
:103A7000000E001C007C0070000000000000000030
:103A80000000C07FC07F800100030006000C00180A
:103A90000030C07FC07F000000000000800380076E
:103AA00000060006000600060006000E001C001CB2
:103AB000000E0006000600060006000680078003D0
:103AC00000060006000600060006000600060006C6
:103AD00000060006000600060006000600060006B6
:103AE000000600060038003C000C000C000C000C26
:103AF000000C000E00070007000E000C000C000C6C
:103B0000000C000C003C0038000000000000000029
:103B10000000000000008038807F004700000000A7
:103B2000000000000000000000000000010202038D
:103B30000405060708090A0B0C0D0E0F10100000F3
:103B4000603B000800000020180000005001000841
:103B5000783B000818000020600B0000700100088E
:103B600001000000100000000B120000D02D000822
:083B700000127A0000000000C1
:04000005080000ED02
:00000001FF
